{
  "address": "0x5FbDB2315678afecb367f032d93F642f64180aa3",
  "abi": [
    {
      "inputs": [
        {
          "internalType": "string",
          "name": "_tokenName",
          "type": "string"
        },
        {
          "internalType": "string",
          "name": "_tokenSymbol",
          "type": "string"
        },
        {
          "internalType": "string",
          "name": "_version",
          "type": "string"
        }
      ],
      "stateMutability": "nonpayable",
      "type": "constructor"
    },
    {
      "anonymous": false,
      "inputs": [
        {
          "indexed": true,
          "internalType": "address",
          "name": "owner",
          "type": "address"
        },
        {
          "indexed": true,
          "internalType": "address",
          "name": "approved",
          "type": "address"
        },
        {
          "indexed": true,
          "internalType": "uint256",
          "name": "tokenId",
          "type": "uint256"
        }
      ],
      "name": "Approval",
      "type": "event"
    },
    {
      "anonymous": false,
      "inputs": [
        {
          "indexed": true,
          "internalType": "address",
          "name": "owner",
          "type": "address"
        },
        {
          "indexed": true,
          "internalType": "address",
          "name": "operator",
          "type": "address"
        },
        {
          "indexed": false,
          "internalType": "bool",
          "name": "approved",
          "type": "bool"
        }
      ],
      "name": "ApprovalForAll",
      "type": "event"
    },
    {
      "anonymous": false,
      "inputs": [
        {
          "indexed": true,
          "internalType": "address",
          "name": "delegator",
          "type": "address"
        },
        {
          "indexed": true,
          "internalType": "address",
          "name": "fromDelegate",
          "type": "address"
        },
        {
          "indexed": true,
          "internalType": "address",
          "name": "toDelegate",
          "type": "address"
        }
      ],
      "name": "DelegateChanged",
      "type": "event"
    },
    {
      "anonymous": false,
      "inputs": [
        {
          "indexed": true,
          "internalType": "address",
          "name": "delegate",
          "type": "address"
        },
        {
          "indexed": false,
          "internalType": "uint256",
          "name": "previousBalance",
          "type": "uint256"
        },
        {
          "indexed": false,
          "internalType": "uint256",
          "name": "newBalance",
          "type": "uint256"
        }
      ],
      "name": "DelegateVotesChanged",
      "type": "event"
    },
    {
      "anonymous": false,
      "inputs": [
        {
          "indexed": true,
          "internalType": "address",
          "name": "from",
          "type": "address"
        },
        {
          "indexed": true,
          "internalType": "address",
          "name": "to",
          "type": "address"
        },
        {
          "indexed": true,
          "internalType": "uint256",
          "name": "tokenId",
          "type": "uint256"
        }
      ],
      "name": "Transfer",
      "type": "event"
    },
    {
      "inputs": [],
      "name": "DOMAIN_SEPARATOR",
      "outputs": [
        {
          "internalType": "bytes32",
          "name": "",
          "type": "bytes32"
        }
      ],
      "stateMutability": "view",
      "type": "function"
    },
    {
      "inputs": [
        {
          "internalType": "address",
          "name": "to",
          "type": "address"
        },
        {
          "internalType": "uint256",
          "name": "tokenId",
          "type": "uint256"
        }
      ],
      "name": "approve",
      "outputs": [],
      "stateMutability": "nonpayable",
      "type": "function"
    },
    {
      "inputs": [
        {
          "internalType": "address",
          "name": "owner",
          "type": "address"
        }
      ],
      "name": "balanceOf",
      "outputs": [
        {
          "internalType": "uint256",
          "name": "",
          "type": "uint256"
        }
      ],
      "stateMutability": "view",
      "type": "function"
    },
    {
      "inputs": [
        {
          "internalType": "address",
          "name": "delegatee",
          "type": "address"
        }
      ],
      "name": "delegate",
      "outputs": [],
      "stateMutability": "nonpayable",
      "type": "function"
    },
    {
      "inputs": [
        {
          "internalType": "address",
          "name": "delegatee",
          "type": "address"
        },
        {
          "internalType": "uint256",
          "name": "nonce",
          "type": "uint256"
        },
        {
          "internalType": "uint256",
          "name": "expiry",
          "type": "uint256"
        },
        {
          "internalType": "uint8",
          "name": "v",
          "type": "uint8"
        },
        {
          "internalType": "bytes32",
          "name": "r",
          "type": "bytes32"
        },
        {
          "internalType": "bytes32",
          "name": "s",
          "type": "bytes32"
        }
      ],
      "name": "delegateBySig",
      "outputs": [],
      "stateMutability": "nonpayable",
      "type": "function"
    },
    {
      "inputs": [
        {
          "internalType": "address",
          "name": "account",
          "type": "address"
        }
      ],
      "name": "delegates",
      "outputs": [
        {
          "internalType": "address",
          "name": "",
          "type": "address"
        }
      ],
      "stateMutability": "view",
      "type": "function"
    },
    {
      "inputs": [
        {
          "internalType": "uint256",
          "name": "tokenId",
          "type": "uint256"
        }
      ],
      "name": "getApproved",
      "outputs": [
        {
          "internalType": "address",
          "name": "",
          "type": "address"
        }
      ],
      "stateMutability": "view",
      "type": "function"
    },
    {
      "inputs": [
        {
          "internalType": "uint256",
          "name": "blockNumber",
          "type": "uint256"
        }
      ],
      "name": "getPastTotalSupply",
      "outputs": [
        {
          "internalType": "uint256",
          "name": "",
          "type": "uint256"
        }
      ],
      "stateMutability": "view",
      "type": "function"
    },
    {
      "inputs": [
        {
          "internalType": "address",
          "name": "account",
          "type": "address"
        },
        {
          "internalType": "uint256",
          "name": "blockNumber",
          "type": "uint256"
        }
      ],
      "name": "getPastVotes",
      "outputs": [
        {
          "internalType": "uint256",
          "name": "",
          "type": "uint256"
        }
      ],
      "stateMutability": "view",
      "type": "function"
    },
    {
      "inputs": [
        {
          "internalType": "address",
          "name": "account",
          "type": "address"
        }
      ],
      "name": "getVotes",
      "outputs": [
        {
          "internalType": "uint256",
          "name": "",
          "type": "uint256"
        }
      ],
      "stateMutability": "view",
      "type": "function"
    },
    {
      "inputs": [
        {
          "internalType": "address",
          "name": "account",
          "type": "address"
        }
      ],
      "name": "getVotingUnits",
      "outputs": [
        {
          "internalType": "uint256",
          "name": "",
          "type": "uint256"
        }
      ],
      "stateMutability": "view",
      "type": "function"
    },
    {
      "inputs": [
        {
          "internalType": "address",
          "name": "owner",
          "type": "address"
        },
        {
          "internalType": "address",
          "name": "operator",
          "type": "address"
        }
      ],
      "name": "isApprovedForAll",
      "outputs": [
        {
          "internalType": "bool",
          "name": "",
          "type": "bool"
        }
      ],
      "stateMutability": "view",
      "type": "function"
    },
    {
      "inputs": [
        {
          "internalType": "address",
          "name": "_to",
          "type": "address"
        },
        {
          "internalType": "uint256",
          "name": "_tokenId",
          "type": "uint256"
        }
      ],
      "name": "mintNFT",
      "outputs": [],
      "stateMutability": "nonpayable",
      "type": "function"
    },
    {
      "inputs": [],
      "name": "name",
      "outputs": [
        {
          "internalType": "string",
          "name": "",
          "type": "string"
        }
      ],
      "stateMutability": "view",
      "type": "function"
    },
    {
      "inputs": [
        {
          "internalType": "address",
          "name": "owner",
          "type": "address"
        }
      ],
      "name": "nonces",
      "outputs": [
        {
          "internalType": "uint256",
          "name": "",
          "type": "uint256"
        }
      ],
      "stateMutability": "view",
      "type": "function"
    },
    {
      "inputs": [
        {
          "internalType": "uint256",
          "name": "tokenId",
          "type": "uint256"
        }
      ],
      "name": "ownerOf",
      "outputs": [
        {
          "internalType": "address",
          "name": "",
          "type": "address"
        }
      ],
      "stateMutability": "view",
      "type": "function"
    },
    {
      "inputs": [
        {
          "internalType": "address",
          "name": "from",
          "type": "address"
        },
        {
          "internalType": "address",
          "name": "to",
          "type": "address"
        },
        {
          "internalType": "uint256",
          "name": "tokenId",
          "type": "uint256"
        }
      ],
      "name": "safeTransferFrom",
      "outputs": [],
      "stateMutability": "nonpayable",
      "type": "function"
    },
    {
      "inputs": [
        {
          "internalType": "address",
          "name": "from",
          "type": "address"
        },
        {
          "internalType": "address",
          "name": "to",
          "type": "address"
        },
        {
          "internalType": "uint256",
          "name": "tokenId",
          "type": "uint256"
        },
        {
          "internalType": "bytes",
          "name": "data",
          "type": "bytes"
        }
      ],
      "name": "safeTransferFrom",
      "outputs": [],
      "stateMutability": "nonpayable",
      "type": "function"
    },
    {
      "inputs": [
        {
          "internalType": "address",
          "name": "operator",
          "type": "address"
        },
        {
          "internalType": "bool",
          "name": "approved",
          "type": "bool"
        }
      ],
      "name": "setApprovalForAll",
      "outputs": [],
      "stateMutability": "nonpayable",
      "type": "function"
    },
    {
      "inputs": [
        {
          "internalType": "bytes4",
          "name": "interfaceId",
          "type": "bytes4"
        }
      ],
      "name": "supportsInterface",
      "outputs": [
        {
          "internalType": "bool",
          "name": "",
          "type": "bool"
        }
      ],
      "stateMutability": "view",
      "type": "function"
    },
    {
      "inputs": [],
      "name": "symbol",
      "outputs": [
        {
          "internalType": "string",
          "name": "",
          "type": "string"
        }
      ],
      "stateMutability": "view",
      "type": "function"
    },
    {
      "inputs": [
        {
          "internalType": "uint256",
          "name": "tokenId",
          "type": "uint256"
        }
      ],
      "name": "tokenURI",
      "outputs": [
        {
          "internalType": "string",
          "name": "",
          "type": "string"
        }
      ],
      "stateMutability": "view",
      "type": "function"
    },
    {
      "inputs": [
        {
          "internalType": "address",
          "name": "from",
          "type": "address"
        },
        {
          "internalType": "address",
          "name": "to",
          "type": "address"
        },
        {
          "internalType": "uint256",
          "name": "tokenId",
          "type": "uint256"
        }
      ],
      "name": "transferFrom",
      "outputs": [],
      "stateMutability": "nonpayable",
      "type": "function"
    }
  ],
  "transactionHash": "0x8a286e321a0ffc2fba3e312efe266dfcf47a7e8adee467a15eb2c589ee554afd",
  "args": [
    "DAOTOKEN",
    "DAOT",
    "1"
  ],
  "numDeployments": 1,
  "solcInputHash": "d1d2d1c8dbdac0bdb1a941ca41627168",
  "bytecode": "0x6101406040523480156200001257600080fd5b50604051620026a8380380620026a88339810160408190526200003591620001b9565b828181846000620000478382620002d9565b506001620000568282620002d9565b5050825160208085019190912083518483012060e08290526101008190524660a0818152604080517f8b73c3c69bb8fe3d512ecc4cf759cc79239f7b179b0ffacaa9a75d522b39400f81880181905281830187905260608201869052608082019490945230818401528151808203909301835260c0019052805194019390932091935091906080523060c0526101205250620003a595505050505050565b634e487b7160e01b600052604160045260246000fd5b600082601f8301126200011c57600080fd5b81516001600160401b0380821115620001395762000139620000f4565b604051601f8301601f19908116603f01168101908282118183101715620001645762000164620000f4565b816040528381526020925086838588010111156200018157600080fd5b600091505b83821015620001a5578582018301518183018401529082019062000186565b600093810190920192909252949350505050565b600080600060608486031215620001cf57600080fd5b83516001600160401b0380821115620001e757600080fd5b620001f5878388016200010a565b945060208601519150808211156200020c57600080fd5b6200021a878388016200010a565b935060408601519150808211156200023157600080fd5b5062000240868287016200010a565b9150509250925092565b600181811c908216806200025f57607f821691505b6020821081036200028057634e487b7160e01b600052602260045260246000fd5b50919050565b601f821115620002d457600081815260208120601f850160051c81016020861015620002af5750805b601f850160051c820191505b81811015620002d057828155600101620002bb565b5050505b505050565b81516001600160401b03811115620002f557620002f5620000f4565b6200030d816200030684546200024a565b8462000286565b602080601f8311600181146200034557600084156200032c5750858301515b600019600386901b1c1916600185901b178555620002d0565b600085815260208120601f198616915b82811015620003765788860151825594840194600190910190840162000355565b5085821015620003955787850151600019600388901b60f8161c191681555b5050505050600190811b01905550565b60805160a05160c05160e05161010051610120516122b3620003f56000396000610ccd01526000610d1c01526000610cf701526000610c5001526000610c7a01526000610ca401526122b36000f3fe608060405234801561001057600080fd5b506004361061014d5760003560e01c80636352211e116100c3578063a22cb4651161007c578063a22cb465146102d7578063abd050a6146102ea578063b88d4fde146102fd578063c3cda52014610310578063c87b56dd14610323578063e985e9c51461033657600080fd5b80636352211e1461027057806370a08231146102835780637ecebe00146102965780638e539e8c146102a957806395d89b41146102bc5780639ab24eb0146102c457600080fd5b80633644e515116101155780633644e515146101e25780633a46b1a8146101f85780633c168eab1461020b57806342842e0e1461021e578063587cde1e146102315780635c19a95c1461025d57600080fd5b806301ffc9a71461015257806306fdde031461017a578063081812fc1461018f578063095ea7b3146101ba57806323b872dd146101cf575b600080fd5b610165610160366004611d43565b610372565b60405190151581526020015b60405180910390f35b6101826103c4565b6040516101719190611da6565b6101a261019d366004611db9565b610456565b6040516001600160a01b039091168152602001610171565b6101cd6101c8366004611dee565b61047d565b005b6101cd6101dd366004611e18565b610597565b6101ea6105c8565b604051908152602001610171565b6101ea610206366004611dee565b6105d7565b6101cd610219366004611dee565b610600565b6101cd61022c366004611e18565b61060e565b6101a261023f366004611e54565b6001600160a01b039081166000908152600660205260409020541690565b6101cd61026b366004611e54565b610629565b6101a261027e366004611db9565b610634565b6101ea610291366004611e54565b610694565b6101ea6102a4366004611e54565b61071a565b6101ea6102b7366004611db9565b610738565b610182610794565b6101ea6102d2366004611e54565b6107a3565b6101cd6102e5366004611e6f565b6107d3565b6101ea6102f8366004611e54565b6107de565b6101cd61030b366004611ec1565b6107e9565b6101cd61031e366004611f9d565b610821565b610182610331366004611db9565b61094e565b610165610344366004611ffd565b6001600160a01b03918216600090815260056020908152604080832093909416825291909152205460ff1690565b60006001600160e01b031982166380ac58cd60e01b14806103a357506001600160e01b03198216635b5e139f60e01b145b806103be57506301ffc9a760e01b6001600160e01b03198316145b92915050565b6060600080546103d390612030565b80601f01602080910402602001604051908101604052809291908181526020018280546103ff90612030565b801561044c5780601f106104215761010080835404028352916020019161044c565b820191906000526020600020905b81548152906001019060200180831161042f57829003601f168201915b5050505050905090565b60006104618261097b565b506000908152600460205260409020546001600160a01b031690565b600061048882610634565b9050806001600160a01b0316836001600160a01b0316036104fa5760405162461bcd60e51b815260206004820152602160248201527f4552433732313a20617070726f76616c20746f2063757272656e74206f776e656044820152603960f91b60648201526084015b60405180910390fd5b336001600160a01b038216148061051657506105168133610344565b6105885760405162461bcd60e51b815260206004820152603d60248201527f4552433732313a20617070726f76652063616c6c6572206973206e6f7420746f60448201527f6b656e206f776e6572206f7220617070726f76656420666f7220616c6c00000060648201526084016104f1565b61059283836109dd565b505050565b6105a13382610a4b565b6105bd5760405162461bcd60e51b81526004016104f190612064565b610592838383610aca565b60006105d2610c43565b905090565b6001600160a01b03821660009081526007602052604081206105f99083610d6a565b9392505050565b61060a8282610e86565b5050565b610592838383604051806020016040528060008152506107e9565b3361060a8183610ea0565b6000818152600260205260408120546001600160a01b0316806103be5760405162461bcd60e51b8152602060048201526018602482015277115490cdcc8c4e881a5b9d985b1a59081d1bdad95b88125160421b60448201526064016104f1565b60006001600160a01b0382166106fe5760405162461bcd60e51b815260206004820152602960248201527f4552433732313a2061646472657373207a65726f206973206e6f7420612076616044820152683634b21037bbb732b960b91b60648201526084016104f1565b506001600160a01b031660009081526003602052604090205490565b6001600160a01b0381166000908152600960205260408120546103be565b60004382106107895760405162461bcd60e51b815260206004820152601a60248201527f566f7465733a20626c6f636b206e6f7420796574206d696e656400000000000060448201526064016104f1565b6103be600883610d6a565b6060600180546103d390612030565b6001600160a01b03811660009081526007602052604081206107c490610f12565b6001600160e01b031692915050565b61060a338383610f4c565b60006103be8261101a565b6107f33383610a4b565b61080f5760405162461bcd60e51b81526004016104f190612064565b61081b84848484611025565b50505050565b834211156108715760405162461bcd60e51b815260206004820152601860248201527f566f7465733a207369676e61747572652065787069726564000000000000000060448201526064016104f1565b604080517fe48329057bfd03d55e49b547132e39cffd9c1820ad7b9d4c5307691425d15adf60208201526001600160a01b0388169181019190915260608101869052608081018590526000906108eb906108e39060a00160405160208183030381529060405280519060200120611058565b8585856110a6565b90506108f6816110ce565b861461093b5760405162461bcd60e51b8152602060048201526014602482015273566f7465733a20696e76616c6964206e6f6e636560601b60448201526064016104f1565b6109458188610ea0565b50505050505050565b60606109598261097b565b600060405180608001604052806051815260200161222d605191399392505050565b6000818152600260205260409020546001600160a01b03166109da5760405162461bcd60e51b8152602060048201526018602482015277115490cdcc8c4e881a5b9d985b1a59081d1bdad95b88125160421b60448201526064016104f1565b50565b600081815260046020526040902080546001600160a01b0319166001600160a01b0384169081179091558190610a1282610634565b6001600160a01b03167f8c5be1e5ebec7d5bd14f71427d1e84f3dd0314c0f7b2291e5b200ac8c7c3b92560405160405180910390a45050565b600080610a5783610634565b9050806001600160a01b0316846001600160a01b03161480610a9e57506001600160a01b0380821660009081526005602090815260408083209388168352929052205460ff165b80610ac25750836001600160a01b0316610ab784610456565b6001600160a01b0316145b949350505050565b826001600160a01b0316610add82610634565b6001600160a01b031614610b035760405162461bcd60e51b81526004016104f1906120b1565b6001600160a01b038216610b655760405162461bcd60e51b8152602060048201526024808201527f4552433732313a207472616e7366657220746f20746865207a65726f206164646044820152637265737360e01b60648201526084016104f1565b610b7283838360016110f6565b826001600160a01b0316610b8582610634565b6001600160a01b031614610bab5760405162461bcd60e51b81526004016104f1906120b1565b600081815260046020908152604080832080546001600160a01b03199081169091556001600160a01b0387811680865260038552838620805460001901905590871680865283862080546001019055868652600290945282852080549092168417909155905184937fddf252ad1be2c89b69c2b068fc378daa952ba7f163c4a11628f55a4df523b3ef91a4610592838383600161117e565b6000306001600160a01b037f000000000000000000000000000000000000000000000000000000000000000016148015610c9c57507f000000000000000000000000000000000000000000000000000000000000000046145b15610cc657507f000000000000000000000000000000000000000000000000000000000000000090565b50604080517f00000000000000000000000000000000000000000000000000000000000000006020808301919091527f0000000000000000000000000000000000000000000000000000000000000000828401527f000000000000000000000000000000000000000000000000000000000000000060608301524660808301523060a0808401919091528351808403909101815260c0909201909252805191012090565b6000438210610dbb5760405162461bcd60e51b815260206004820181905260248201527f436865636b706f696e74733a20626c6f636b206e6f7420796574206d696e656460448201526064016104f1565b6000610dc68361118a565b84549091506000816005811115610e24576000610de2846111f3565b610dec908561210c565b60008981526020902090915081015463ffffffff9081169086161015610e1457809150610e22565b610e1f81600161211f565b92505b505b6000610e32888685856112db565b90508015610e6e57610e5788610e4960018461210c565b600091825260209091200190565b5464010000000090046001600160e01b0316610e71565b60005b6001600160e01b031698975050505050505050565b61060a828260405180602001604052806000815250611339565b6001600160a01b0382811660008181526006602052604080822080548686166001600160a01b0319821681179092559151919094169392849290917f3134e8a2e6d97e929a7e54011ea5485d7d196dd5f0ba4d4ef95803e8e3fc257f9190a46105928183610f0d8661101a565b61136c565b80546000908015610f4357610f2c83610e4960018461210c565b5464010000000090046001600160e01b03166105f9565b60009392505050565b816001600160a01b0316836001600160a01b031603610fad5760405162461bcd60e51b815260206004820152601960248201527f4552433732313a20617070726f766520746f2063616c6c65720000000000000060448201526064016104f1565b6001600160a01b03838116600081815260056020908152604080832094871680845294825291829020805460ff191686151590811790915591519182527f17307eab39ab6107e8899845ad3d59bd9653f200f220920489ca2b5937696c31910160405180910390a3505050565b60006103be82610694565b611030848484610aca565b61103c848484846114a9565b61081b5760405162461bcd60e51b81526004016104f190612132565b60006103be611065610c43565b8360405161190160f01b6020820152602281018390526042810182905260009060620160405160208183030381529060405280519060200120905092915050565b60008060006110b7878787876115a7565b915091506110c48161166b565b5095945050505050565b6001600160a01b03811660009081526009602052604090208054600181018255905b50919050565b600181111561081b576001600160a01b0384161561113c576001600160a01b0384166000908152600360205260408120805483929061113690849061210c565b90915550505b6001600160a01b0383161561081b576001600160a01b0383166000908152600360205260408120805483929061117390849061211f565b909155505050505050565b61081b848484846117b5565b600063ffffffff8211156111ef5760405162461bcd60e51b815260206004820152602660248201527f53616665436173743a2076616c756520646f65736e27742066697420696e203360448201526532206269747360d01b60648201526084016104f1565b5090565b60008160000361120557506000919050565b60006001611212846117c5565b901c6001901b9050600181848161122b5761122b612184565b048201901c9050600181848161124357611243612184565b048201901c9050600181848161125b5761125b612184565b048201901c9050600181848161127357611273612184565b048201901c9050600181848161128b5761128b612184565b048201901c905060018184816112a3576112a3612184565b048201901c905060018184816112bb576112bb612184565b048201901c90506105f9818285816112d5576112d5612184565b04611859565b60005b818310156113315760006112f2848461186f565b60008781526020902090915063ffffffff86169082015463ffffffff16111561131d5780925061132b565b61132881600161211f565b93505b506112de565b509392505050565b611343838361188a565b61135060008484846114a9565b6105925760405162461bcd60e51b81526004016104f190612132565b816001600160a01b0316836001600160a01b03161415801561138e5750600081115b15610592576001600160a01b0383161561141c576001600160a01b038316600090815260076020526040812081906113c990611a2d85611a39565b91509150846001600160a01b03167fdec2bacdd2f05b59de34da9b523dff8be42e5e38e818c82fdb0bae774387a7248383604051611411929190918252602082015260400190565b60405180910390a250505b6001600160a01b03821615610592576001600160a01b0382166000908152600760205260408120819061145290611a7185611a39565b91509150836001600160a01b03167fdec2bacdd2f05b59de34da9b523dff8be42e5e38e818c82fdb0bae774387a724838360405161149a929190918252602082015260400190565b60405180910390a25050505050565b60006001600160a01b0384163b1561159f57604051630a85bd0160e11b81526001600160a01b0385169063150b7a02906114ed90339089908890889060040161219a565b6020604051808303816000875af1925050508015611528575060408051601f3d908101601f19168201909252611525918101906121d7565b60015b611585573d808015611556576040519150601f19603f3d011682016040523d82523d6000602084013e61155b565b606091505b50805160000361157d5760405162461bcd60e51b81526004016104f190612132565b805181602001fd5b6001600160e01b031916630a85bd0160e11b149050610ac2565b506001610ac2565b6000807f7fffffffffffffffffffffffffffffff5d576e7357a4501ddfe92f46681b20a08311156115de5750600090506003611662565b6040805160008082526020820180845289905260ff881692820192909252606081018690526080810185905260019060a0016020604051602081039080840390855afa158015611632573d6000803e3d6000fd5b5050604051601f1901519150506001600160a01b03811661165b57600060019250925050611662565b9150600090505b94509492505050565b600081600481111561167f5761167f6121f4565b036116875750565b600181600481111561169b5761169b6121f4565b036116e85760405162461bcd60e51b815260206004820152601860248201527f45434453413a20696e76616c6964207369676e6174757265000000000000000060448201526064016104f1565b60028160048111156116fc576116fc6121f4565b036117495760405162461bcd60e51b815260206004820152601f60248201527f45434453413a20696e76616c6964207369676e6174757265206c656e6774680060448201526064016104f1565b600381600481111561175d5761175d6121f4565b036109da5760405162461bcd60e51b815260206004820152602260248201527f45434453413a20696e76616c6964207369676e6174757265202773272076616c604482015261756560f01b60648201526084016104f1565b6117c0848483611a7d565b61081b565b600080608083901c156117da57608092831c92015b604083901c156117ec57604092831c92015b602083901c156117fe57602092831c92015b601083901c1561181057601092831c92015b600883901c1561182257600892831c92015b600483901c1561183457600492831c92015b600283901c1561184657600292831c92015b600183901c156103be5760010192915050565b600081831061186857816105f9565b5090919050565b600061187e600284841861220a565b6105f99084841661211f565b6001600160a01b0382166118e05760405162461bcd60e51b815260206004820181905260248201527f4552433732313a206d696e7420746f20746865207a65726f206164647265737360448201526064016104f1565b6000818152600260205260409020546001600160a01b0316156119455760405162461bcd60e51b815260206004820152601c60248201527f4552433732313a20746f6b656e20616c7265616479206d696e7465640000000060448201526064016104f1565b6119536000838360016110f6565b6000818152600260205260409020546001600160a01b0316156119b85760405162461bcd60e51b815260206004820152601c60248201527f4552433732313a20746f6b656e20616c7265616479206d696e7465640000000060448201526064016104f1565b6001600160a01b038216600081815260036020908152604080832080546001019055848352600290915280822080546001600160a01b0319168417905551839291907fddf252ad1be2c89b69c2b068fc378daa952ba7f163c4a11628f55a4df523b3ef908290a461060a60008383600161117e565b60006105f9828461210c565b600080611a6485611a5f611a4c88610f12565b6001600160e01b0316868863ffffffff16565b611aed565b915091505b935093915050565b60006105f9828461211f565b6001600160a01b038316611a9c57611a996008611a7183611a39565b50505b6001600160a01b038216611abb57611ab86008611a2d83611a39565b50505b6001600160a01b038381166000908152600660205260408082205485841683529120546105929291821691168361136c565b600080611b0b84611afd4361118a565b611b0686611b21565b611b8a565b6001600160e01b03918216969116945092505050565b60006001600160e01b038211156111ef5760405162461bcd60e51b815260206004820152602760248201527f53616665436173743a2076616c756520646f65736e27742066697420696e20326044820152663234206269747360c81b60648201526084016104f1565b825460009081908015611cd3576000611ba887610e4960018561210c565b60408051808201909152905463ffffffff8082168084526401000000009092046001600160e01b031660208401529192509087161015611c2a5760405162461bcd60e51b815260206004820152601760248201527f436865636b706f696e743a20696e76616c6964206b657900000000000000000060448201526064016104f1565b805163ffffffff808816911603611c735784611c4b88610e4960018661210c565b80546001600160e01b03929092166401000000000263ffffffff909216919091179055611cc3565b6040805180820190915263ffffffff80881682526001600160e01b0380881660208085019182528b54600181018d5560008d81529190912094519151909216640100000000029216919091179101555b602001519250839150611a699050565b50506040805180820190915263ffffffff80851682526001600160e01b0380851660208085019182528854600181018a5560008a815291822095519251909316640100000000029190931617920191909155905081611a69565b6001600160e01b0319811681146109da57600080fd5b600060208284031215611d5557600080fd5b81356105f981611d2d565b6000815180845260005b81811015611d8657602081850181015186830182015201611d6a565b506000602082860101526020601f19601f83011685010191505092915050565b6020815260006105f96020830184611d60565b600060208284031215611dcb57600080fd5b5035919050565b80356001600160a01b0381168114611de957600080fd5b919050565b60008060408385031215611e0157600080fd5b611e0a83611dd2565b946020939093013593505050565b600080600060608486031215611e2d57600080fd5b611e3684611dd2565b9250611e4460208501611dd2565b9150604084013590509250925092565b600060208284031215611e6657600080fd5b6105f982611dd2565b60008060408385031215611e8257600080fd5b611e8b83611dd2565b915060208301358015158114611ea057600080fd5b809150509250929050565b634e487b7160e01b600052604160045260246000fd5b60008060008060808587031215611ed757600080fd5b611ee085611dd2565b9350611eee60208601611dd2565b925060408501359150606085013567ffffffffffffffff80821115611f1257600080fd5b818701915087601f830112611f2657600080fd5b813581811115611f3857611f38611eab565b604051601f8201601f19908116603f01168101908382118183101715611f6057611f60611eab565b816040528281528a6020848701011115611f7957600080fd5b82602086016020830137600060208483010152809550505050505092959194509250565b60008060008060008060c08789031215611fb657600080fd5b611fbf87611dd2565b95506020870135945060408701359350606087013560ff81168114611fe357600080fd5b9598949750929560808101359460a0909101359350915050565b6000806040838503121561201057600080fd5b61201983611dd2565b915061202760208401611dd2565b90509250929050565b600181811c9082168061204457607f821691505b6020821081036110f057634e487b7160e01b600052602260045260246000fd5b6020808252602d908201527f4552433732313a2063616c6c6572206973206e6f7420746f6b656e206f776e6560408201526c1c881bdc88185c1c1c9bdd9959609a1b606082015260800190565b60208082526025908201527f4552433732313a207472616e736665722066726f6d20696e636f72726563742060408201526437bbb732b960d91b606082015260800190565b634e487b7160e01b600052601160045260246000fd5b818103818111156103be576103be6120f6565b808201808211156103be576103be6120f6565b60208082526032908201527f4552433732313a207472616e7366657220746f206e6f6e20455243373231526560408201527131b2b4bb32b91034b6b83632b6b2b73a32b960711b606082015260800190565b634e487b7160e01b600052601260045260246000fd5b6001600160a01b03858116825284166020820152604081018390526080606082018190526000906121cd90830184611d60565b9695505050505050565b6000602082840312156121e957600080fd5b81516105f981611d2d565b634e487b7160e01b600052602160045260246000fd5b60008261222757634e487b7160e01b600052601260045260246000fd5b50049056fe68747470733a2f2f6d7564656d6f2e696e667572612d697066732e696f2f697066732f516d59655555444134513378777546776d6d6a736165314b48537a4a39464b3137684e666843346376646f647973a2646970667358221220d14038627611f3e48a8d7975fbae6833dab01f52ef255d443121ec179e8f343164736f6c63430008110033",
  "devdoc": {
    "author": "OpenZeppelin",
    "details": "Token contract will serve as input to Governor contract.",
    "kind": "dev",
    "methods": {
      "DOMAIN_SEPARATOR()": {
        "details": "Returns the contract's {EIP712} domain separator."
      },
      "approve(address,uint256)": {
        "details": "See {IERC721-approve}."
      },
      "balanceOf(address)": {
        "details": "See {IERC721-balanceOf}."
      },
      "delegate(address)": {
        "details": "Delegates votes from the sender to `delegatee`."
      },
      "delegateBySig(address,uint256,uint256,uint8,bytes32,bytes32)": {
        "details": "Delegates votes from signer to `delegatee`."
      },
      "delegates(address)": {
        "details": "Returns the delegate that `account` has chosen."
      },
      "getApproved(uint256)": {
        "details": "See {IERC721-getApproved}."
      },
      "getPastTotalSupply(uint256)": {
        "details": "Returns the total supply of votes available at the end of a past block (`blockNumber`). NOTE: This value is the sum of all available votes, which is not necessarily the sum of all delegated votes. Votes that have not been delegated are still part of total supply, even though they would not participate in a vote. Requirements: - `blockNumber` must have been already mined"
      },
      "getPastVotes(address,uint256)": {
        "details": "Returns the amount of votes that `account` had at the end of a past block (`blockNumber`). Requirements: - `blockNumber` must have been already mined"
      },
      "getVotes(address)": {
        "details": "Returns the current amount of votes that `account` has."
      },
      "isApprovedForAll(address,address)": {
        "details": "See {IERC721-isApprovedForAll}."
      },
      "name()": {
        "details": "See {IERC721Metadata-name}."
      },
      "nonces(address)": {
        "details": "Returns an address nonce."
      },
      "ownerOf(uint256)": {
        "details": "See {IERC721-ownerOf}."
      },
      "safeTransferFrom(address,address,uint256)": {
        "details": "See {IERC721-safeTransferFrom}."
      },
      "safeTransferFrom(address,address,uint256,bytes)": {
        "details": "See {IERC721-safeTransferFrom}."
      },
      "setApprovalForAll(address,bool)": {
        "details": "See {IERC721-setApprovalForAll}."
      },
      "supportsInterface(bytes4)": {
        "details": "See {IERC165-supportsInterface}."
      },
      "symbol()": {
        "details": "See {IERC721Metadata-symbol}."
      },
      "tokenURI(uint256)": {
        "details": "See {IERC721Metadata-tokenURI}."
      },
      "transferFrom(address,address,uint256)": {
        "details": "See {IERC721-transferFrom}."
      }
    },
    "title": "Treasury Contract",
    "version": 1
  },
  "userdoc": {
    "kind": "user",
    "methods": {},
    "notice": "This contract is standard ERC721 contract with votes..",
    "version": 1
  },
  "storageLayout": {
    "storage": [
      {
        "astId": 4686,
        "contract": "contracts/GovernanceToken.sol:GovernanceToken",
        "label": "_name",
        "offset": 0,
        "slot": "0",
        "type": "t_string_storage"
      },
      {
        "astId": 4688,
        "contract": "contracts/GovernanceToken.sol:GovernanceToken",
        "label": "_symbol",
        "offset": 0,
        "slot": "1",
        "type": "t_string_storage"
      },
      {
        "astId": 4692,
        "contract": "contracts/GovernanceToken.sol:GovernanceToken",
        "label": "_owners",
        "offset": 0,
        "slot": "2",
        "type": "t_mapping(t_uint256,t_address)"
      },
      {
        "astId": 4696,
        "contract": "contracts/GovernanceToken.sol:GovernanceToken",
        "label": "_balances",
        "offset": 0,
        "slot": "3",
        "type": "t_mapping(t_address,t_uint256)"
      },
      {
        "astId": 4700,
        "contract": "contracts/GovernanceToken.sol:GovernanceToken",
        "label": "_tokenApprovals",
        "offset": 0,
        "slot": "4",
        "type": "t_mapping(t_uint256,t_address)"
      },
      {
        "astId": 4706,
        "contract": "contracts/GovernanceToken.sol:GovernanceToken",
        "label": "_operatorApprovals",
        "offset": 0,
        "slot": "5",
        "type": "t_mapping(t_address,t_mapping(t_address,t_bool))"
      },
      {
        "astId": 4196,
        "contract": "contracts/GovernanceToken.sol:GovernanceToken",
        "label": "_delegation",
        "offset": 0,
        "slot": "6",
        "type": "t_mapping(t_address,t_address)"
      },
      {
        "astId": 4201,
        "contract": "contracts/GovernanceToken.sol:GovernanceToken",
        "label": "_delegateCheckpoints",
        "offset": 0,
        "slot": "7",
        "type": "t_mapping(t_address,t_struct(History)6162_storage)"
      },
      {
        "astId": 4204,
        "contract": "contracts/GovernanceToken.sol:GovernanceToken",
        "label": "_totalCheckpoints",
        "offset": 0,
        "slot": "8",
        "type": "t_struct(History)6162_storage"
      },
      {
        "astId": 4209,
        "contract": "contracts/GovernanceToken.sol:GovernanceToken",
        "label": "_nonces",
        "offset": 0,
        "slot": "9",
        "type": "t_mapping(t_address,t_struct(Counter)7551_storage)"
      }
    ],
    "types": {
      "t_address": {
        "encoding": "inplace",
        "label": "address",
        "numberOfBytes": "20"
      },
      "t_array(t_struct(Checkpoint)6167_storage)dyn_storage": {
        "base": "t_struct(Checkpoint)6167_storage",
        "encoding": "dynamic_array",
        "label": "struct Checkpoints.Checkpoint[]",
        "numberOfBytes": "32"
      },
      "t_bool": {
        "encoding": "inplace",
        "label": "bool",
        "numberOfBytes": "1"
      },
      "t_mapping(t_address,t_address)": {
        "encoding": "mapping",
        "key": "t_address",
        "label": "mapping(address => address)",
        "numberOfBytes": "32",
        "value": "t_address"
      },
      "t_mapping(t_address,t_bool)": {
        "encoding": "mapping",
        "key": "t_address",
        "label": "mapping(address => bool)",
        "numberOfBytes": "32",
        "value": "t_bool"
      },
      "t_mapping(t_address,t_mapping(t_address,t_bool))": {
        "encoding": "mapping",
        "key": "t_address",
        "label": "mapping(address => mapping(address => bool))",
        "numberOfBytes": "32",
        "value": "t_mapping(t_address,t_bool)"
      },
      "t_mapping(t_address,t_struct(Counter)7551_storage)": {
        "encoding": "mapping",
        "key": "t_address",
        "label": "mapping(address => struct Counters.Counter)",
        "numberOfBytes": "32",
        "value": "t_struct(Counter)7551_storage"
      },
      "t_mapping(t_address,t_struct(History)6162_storage)": {
        "encoding": "mapping",
        "key": "t_address",
        "label": "mapping(address => struct Checkpoints.History)",
        "numberOfBytes": "32",
        "value": "t_struct(History)6162_storage"
      },
      "t_mapping(t_address,t_uint256)": {
        "encoding": "mapping",
        "key": "t_address",
        "label": "mapping(address => uint256)",
        "numberOfBytes": "32",
        "value": "t_uint256"
      },
      "t_mapping(t_uint256,t_address)": {
        "encoding": "mapping",
        "key": "t_uint256",
        "label": "mapping(uint256 => address)",
        "numberOfBytes": "32",
        "value": "t_address"
      },
      "t_string_storage": {
        "encoding": "bytes",
        "label": "string",
        "numberOfBytes": "32"
      },
      "t_struct(Checkpoint)6167_storage": {
        "encoding": "inplace",
        "label": "struct Checkpoints.Checkpoint",
        "members": [
          {
            "astId": 6164,
            "contract": "contracts/GovernanceToken.sol:GovernanceToken",
            "label": "_blockNumber",
            "offset": 0,
            "slot": "0",
            "type": "t_uint32"
          },
          {
            "astId": 6166,
            "contract": "contracts/GovernanceToken.sol:GovernanceToken",
            "label": "_value",
            "offset": 4,
            "slot": "0",
            "type": "t_uint224"
          }
        ],
        "numberOfBytes": "32"
      },
      "t_struct(Counter)7551_storage": {
        "encoding": "inplace",
        "label": "struct Counters.Counter",
        "members": [
          {
            "astId": 7550,
            "contract": "contracts/GovernanceToken.sol:GovernanceToken",
            "label": "_value",
            "offset": 0,
            "slot": "0",
            "type": "t_uint256"
          }
        ],
        "numberOfBytes": "32"
      },
      "t_struct(History)6162_storage": {
        "encoding": "inplace",
        "label": "struct Checkpoints.History",
        "members": [
          {
            "astId": 6161,
            "contract": "contracts/GovernanceToken.sol:GovernanceToken",
            "label": "_checkpoints",
            "offset": 0,
            "slot": "0",
            "type": "t_array(t_struct(Checkpoint)6167_storage)dyn_storage"
          }
        ],
        "numberOfBytes": "32"
      },
      "t_uint224": {
        "encoding": "inplace",
        "label": "uint224",
        "numberOfBytes": "28"
      },
      "t_uint256": {
        "encoding": "inplace",
        "label": "uint256",
        "numberOfBytes": "32"
      },
      "t_uint32": {
        "encoding": "inplace",
        "label": "uint32",
        "numberOfBytes": "4"
      }
    }
  }
}