{
  "address": "0x0165878A594ca255338adfa4d48449f69242Eb8F",
  "abi": [
    {
      "inputs": [],
      "stateMutability": "payable",
      "type": "constructor"
    },
    {
      "anonymous": false,
      "inputs": [
        {
          "indexed": false,
          "internalType": "address",
          "name": "_addr",
          "type": "address"
        },
        {
          "indexed": false,
          "internalType": "uint256",
          "name": "_value",
          "type": "uint256"
        }
      ],
      "name": "Log",
      "type": "event"
    },
    {
      "anonymous": false,
      "inputs": [
        {
          "indexed": true,
          "internalType": "address",
          "name": "previousOwner",
          "type": "address"
        },
        {
          "indexed": true,
          "internalType": "address",
          "name": "newOwner",
          "type": "address"
        }
      ],
      "name": "OwnershipTransferred",
      "type": "event"
    },
    {
      "stateMutability": "payable",
      "type": "fallback"
    },
    {
      "inputs": [],
      "name": "isReleased",
      "outputs": [
        {
          "internalType": "bool",
          "name": "",
          "type": "bool"
        }
      ],
      "stateMutability": "view",
      "type": "function"
    },
    {
      "inputs": [],
      "name": "owner",
      "outputs": [
        {
          "internalType": "address",
          "name": "",
          "type": "address"
        }
      ],
      "stateMutability": "view",
      "type": "function"
    },
    {
      "inputs": [],
      "name": "payee",
      "outputs": [
        {
          "internalType": "address",
          "name": "",
          "type": "address"
        }
      ],
      "stateMutability": "view",
      "type": "function"
    },
    {
      "inputs": [
        {
          "internalType": "address",
          "name": "_payee",
          "type": "address"
        }
      ],
      "name": "releaseFunds",
      "outputs": [],
      "stateMutability": "nonpayable",
      "type": "function"
    },
    {
      "inputs": [],
      "name": "renounceOwnership",
      "outputs": [],
      "stateMutability": "nonpayable",
      "type": "function"
    },
    {
      "inputs": [],
      "name": "totalFunds",
      "outputs": [
        {
          "internalType": "uint256",
          "name": "",
          "type": "uint256"
        }
      ],
      "stateMutability": "view",
      "type": "function"
    },
    {
      "inputs": [
        {
          "internalType": "address",
          "name": "newOwner",
          "type": "address"
        }
      ],
      "name": "transferOwnership",
      "outputs": [],
      "stateMutability": "nonpayable",
      "type": "function"
    },
    {
      "stateMutability": "payable",
      "type": "receive"
    }
  ],
  "transactionHash": "0xfb290f1263cc473a084b7bd7630de3be7897229d01bc3f689256c5c02afad483",
  "args": [],
  "numDeployments": 1,
  "solcInputHash": "32282a9aae2e0b126826606b5f94fd1a",
  "bytecode": "0x608060405261000d33610023565b346001556002805460ff60a01b19169055610073565b600080546001600160a01b038381166001600160a01b0319831681178455604051919092169283917f8be0079c531659141344cd1fd0a4f28419497f9722a3daafe3b4186f6b6457e09190a35050565b6103f9806100826000396000f3fe6080604052600436106100745760003560e01c8063968ed6001161004e578063968ed60014610167578063ae90b2131461018b578063f2fde38b146101ab578063fa2a8997146101cb576100bc565b8063192e7a7b146100f9578063715018a61461011b5780638da5cb5b14610130576100bc565b366100bc573460018190556040805133815260208101929092527ff950957d2407bed19dc99b718b46b4ce6090c05589006dfb86fd22c34865b23e91015b60405180910390a1005b3460018190556040805133815260208101929092527ff950957d2407bed19dc99b718b46b4ce6090c05589006dfb86fd22c34865b23e91016100b2565b34801561010557600080fd5b50610119610114366004610393565b6101fc565b005b34801561012757600080fd5b50610119610257565b34801561013c57600080fd5b506000546001600160a01b03165b6040516001600160a01b0390911681526020015b60405180910390f35b34801561017357600080fd5b5061017d60015481565b60405190815260200161015e565b34801561019757600080fd5b5060025461014a906001600160a01b031681565b3480156101b757600080fd5b506101196101c6366004610393565b61026b565b3480156101d757600080fd5b506002546101ec90600160a01b900460ff1681565b604051901515815260200161015e565b6102046102e9565b6002805460ff60a01b1916600160a01b1790556001546040516001600160a01b0383169180156108fc02916000818181858888f1935050505015801561024e573d6000803e3d6000fd5b50506000600155565b61025f6102e9565b6102696000610343565b565b6102736102e9565b6001600160a01b0381166102dd5760405162461bcd60e51b815260206004820152602660248201527f4f776e61626c653a206e6577206f776e657220697320746865207a65726f206160448201526564647265737360d01b60648201526084015b60405180910390fd5b6102e681610343565b50565b6000546001600160a01b031633146102695760405162461bcd60e51b815260206004820181905260248201527f4f776e61626c653a2063616c6c6572206973206e6f7420746865206f776e657260448201526064016102d4565b600080546001600160a01b038381166001600160a01b0319831681178455604051919092169283917f8be0079c531659141344cd1fd0a4f28419497f9722a3daafe3b4186f6b6457e09190a35050565b6000602082840312156103a557600080fd5b81356001600160a01b03811681146103bc57600080fd5b939250505056fea2646970667358221220ac7df7d7f2e57e7c976643ae65940651308215f915785fd9d3f5976ee52501fd64736f6c63430008110033",
  "devdoc": {
    "kind": "dev",
    "methods": {
      "owner()": {
        "details": "Returns the address of the current owner."
      },
      "renounceOwnership()": {
        "details": "Leaves the contract without owner. It will not be possible to call `onlyOwner` functions anymore. Can only be called by the current owner. NOTE: Renouncing ownership will leave the contract without an owner, thereby removing any functionality that is only available to the owner."
      },
      "transferOwnership(address)": {
        "details": "Transfers ownership of the contract to a new account (`newOwner`). Can only be called by the current owner."
      }
    },
    "version": 1
  },
  "userdoc": {
    "kind": "user",
    "methods": {},
    "version": 1
  },
  "storageLayout": {
    "storage": [
      {
        "astId": 7,
        "contract": "contracts/Treasury.sol:Treasury",
        "label": "_owner",
        "offset": 0,
        "slot": "0",
        "type": "t_address"
      },
      {
        "astId": 141,
        "contract": "contracts/Treasury.sol:Treasury",
        "label": "totalFunds",
        "offset": 0,
        "slot": "1",
        "type": "t_uint256"
      },
      {
        "astId": 143,
        "contract": "contracts/Treasury.sol:Treasury",
        "label": "payee",
        "offset": 0,
        "slot": "2",
        "type": "t_address"
      },
      {
        "astId": 145,
        "contract": "contracts/Treasury.sol:Treasury",
        "label": "isReleased",
        "offset": 20,
        "slot": "2",
        "type": "t_bool"
      }
    ],
    "types": {
      "t_address": {
        "encoding": "inplace",
        "label": "address",
        "numberOfBytes": "20"
      },
      "t_bool": {
        "encoding": "inplace",
        "label": "bool",
        "numberOfBytes": "1"
      },
      "t_uint256": {
        "encoding": "inplace",
        "label": "uint256",
        "numberOfBytes": "32"
      }
    }
  }
}